:100000001CC02EC02DC02CC02BC02AC029C028C0A7
:1000100027C026C025C024C023C022C021C020C0C4
:100020001FC01EC01DC0BCC0A9C0AAC0ABC0ACC010
:10003000ADC0AEC0AFC0B0C0B1C011241FBECFE5CF
:10004000D4E0DEBFCDBF10E0A0E6B0E0EEE0F2E02D
:1000500002C005900D92A036B107D9F76BD0D5C07C
:10006000CFCF5F9BFECF8CB1089520E030E0000041
:100070000000000000000000000000000000000080
:1000800000002F5F3F4F8217930788F70895CF93A3
:10009000DF93EC0107C08CB95E9BFECF219688EE02
:1000A00093E0E3DF88818823B1F7DF91CF91089552
:1000B0008CB95E9BFECF88EE93E0D7DF0895EF9278
:1000C000FF920F931F93182F64E66CD0482F282FB0
:1000D00030E08CE99FEF289F7001299FF00C389F3A
:1000E000F00C1124C701810F911D6AE070E066D009
:1000F000062F842F805DDCDF802F805DD9DF105DCF
:100100001E0D86EF9FEF089F002D1124802F810F79
:10011000CFDF1F910F91FF90EF9008951BB888E1FA
:100120008AB986E880BD10BC8DE489B984E690E088
:100130009CDF08950F931F938FE087BB80EF81BBF7
:10014000EDDF88EE93E02CE231E0F9013197F1F731
:100150000197D9F700E910E670EA60E559E046E05A
:100160003AE025E05F9BFECF8CB190E0FC01F09778
:10017000EA30F105B8F7ED5EFF4F099428BBF2CFE6
:1001800038BBF0CF48BBEECF58BBECCF18BAEACFA4
:1001900062BBE8CF72BBE6CF12BBE4CF02BBE2CFBB
:1001A00012BAE0CF991B79E004C0991F961708F0A6
:1001B000961B881F7A95C9F78095089597FB092E9D
:1001C00007260AD077FD04D00CD006D000201AF400
:1001D000709561957F4F0895F6F7909581959F4FA3
:1001E0000895AA1BBB1B51E107C0AA1FBB1FA6177E
:1001F000B70710F0A61BB70B881F991F5A95A9F7D0
:0E02000080959095BC01CD010895F894FFCF34
:00000001FF
